{
  "transactions": [
    {
      "hash": "0x746f8b6093800630e673535d1c4ad81be655e6a9ab9936ae290dbaed76afd775",
      "transactionType": "CALL",
      "contractName": null,
      "contractAddress": "0xcac524bca292aaade2df8a05cc58f0a65b1b3bb9",
      "function": "approve(address,uint256)",
      "arguments": [
        "0xeE567Fe1712Faf6149d80dA1E6934E354124CfE3",
        "0"
      ],
      "transaction": {
        "from": "0x881041a0f75276dd79f53f9988bf850c686f33a7",
        "to": "0xcac524bca292aaade2df8a05cc58f0a65b1b3bb9",
        "gas": "0xd8f1",
        "value": "0x0",
        "input": "0x095ea7b3000000000000000000000000ee567fe1712faf6149d80da1e6934e354124cfe30000000000000000000000000000000000000000000000000000000000000000",
        "nonce": "0x14",
        "chainId": "0xaa36a7"
      },
      "additionalContracts": [],
      "isFixedGasLimit": false
    },
    {
      "hash": "0x133f548af85c102e85df8f1bab052ea140cf7e9eb624ed3dd508e2de6365b7c6",
      "transactionType": "CALL",
      "contractName": null,
      "contractAddress": "0xcac524bca292aaade2df8a05cc58f0a65b1b3bb9",
      "function": "approve(address,uint256)",
      "arguments": [
        "0xeE567Fe1712Faf6149d80dA1E6934E354124CfE3",
        "5000000"
      ],
      "transaction": {
        "from": "0x881041a0f75276dd79f53f9988bf850c686f33a7",
        "to": "0xcac524bca292aaade2df8a05cc58f0a65b1b3bb9",
        "gas": "0x14481",
        "value": "0x0",
        "input": "0x095ea7b3000000000000000000000000ee567fe1712faf6149d80da1e6934e354124cfe300000000000000000000000000000000000000000000000000000000004c4b40",
        "nonce": "0x15",
        "chainId": "0xaa36a7"
      },
      "additionalContracts": [],
      "isFixedGasLimit": false
    },
    {
      "hash": "0x20657636f677aa46658439ee83240bf3c5f77e229bd928b6ab86dec0d9efcd9a",
      "transactionType": "CALL",
      "contractName": null,
      "contractAddress": "0xee567fe1712faf6149d80da1e6934e354124cfe3",
      "function": "swapExactTokensForTokens(uint256,uint256,address[],address,uint256)",
      "arguments": [
        "5000000",
        "0",
        "[0xCaC524BcA292aaade2DF8A05cC58F0a65B1B3bB9, 0x3BfB466E93D726d7e4f1366Ed6CFd01A51cEd75f]",
        "0x881041A0f75276dD79F53f9988bf850c686F33a7",
        "1755398616"
      ],
      "transaction": {
        "from": "0x881041a0f75276dd79f53f9988bf850c686f33a7",
        "to": "0xee567fe1712faf6149d80da1e6934e354124cfe3",
        "gas": "0x36531",
        "value": "0x0",
        "input": "0x38ed173900000000000000000000000000000000000000000000000000000000004c4b40000000000000000000000000000000000000000000000000000000000000000000000000000000000000000000000000000000000000000000000000000000a0000000000000000000000000881041a0f75276dd79f53f9988bf850c686f33a70000000000000000000000000000000000000000000000000000000068a141d80000000000000000000000000000000000000000000000000000000000000002000000000000000000000000cac524bca292aaade2df8a05cc58f0a65b1b3bb90000000000000000000000003bfb466e93d726d7e4f1366ed6cfd01a51ced75f",
        "nonce": "0x16",
        "chainId": "0xaa36a7"
      },
      "additionalContracts": [],
      "isFixedGasLimit": false
    }
  ],
  "receipts": [
    {
      "status": "0x1",
      "cumulativeGasUsed": "0xae77fb",
      "logs": [
        {
          "address": "0xcac524bca292aaade2df8a05cc58f0a65b1b3bb9",
          "topics": [
            "0x8c5be1e5ebec7d5bd14f71427d1e84f3dd0314c0f7b2291e5b200ac8c7c3b925",
            "0x000000000000000000000000881041a0f75276dd79f53f9988bf850c686f33a7",
            "0x000000000000000000000000ee567fe1712faf6149d80da1e6934e354124cfe3"
          ],
          "data": "0x0000000000000000000000000000000000000000000000000000000000000000",
          "blockHash": "0x68db3f00be20debdddd4e43e74712a701eabfca5d013e41d111839db105e5dde",
          "blockNumber": "0x895790",
          "transactionHash": "0x746f8b6093800630e673535d1c4ad81be655e6a9ab9936ae290dbaed76afd775",
          "transactionIndex": "0x5e",
          "logIndex": "0xd9",
          "removed": false
        }
      ],
      "logsBloom": "0x00000000000000000000000000000000000000000000000000000000000000000000000000000000000000000000800000000000000000000000000008200000000000000000000000000000000000000000000000000000000000000000000000010000000000000000000000000000000000000000000000000000000000000000000000000000000000000000000000000000000000000000001000000000020000000000000000000000000040000000000000000000000000800000000000000000000000000000000000000000200000000000000000000000000000000010000000000000000000000000000000000000000200000080000000000000",
      "type": "0x2",
      "transactionHash": "0x746f8b6093800630e673535d1c4ad81be655e6a9ab9936ae290dbaed76afd775",
      "transactionIndex": "0x5e",
      "blockHash": "0x68db3f00be20debdddd4e43e74712a701eabfca5d013e41d111839db105e5dde",
      "blockNumber": "0x895790",
      "gasUsed": "0x9d10",
      "effectiveGasPrice": "0x3020e5",
      "from": "0x881041a0f75276dd79f53f9988bf850c686f33a7",
      "to": "0xcac524bca292aaade2df8a05cc58f0a65b1b3bb9",
      "contractAddress": null
    },
    {
      "status": "0x1",
      "cumulativeGasUsed": "0x85243e",
      "logs": [
        {
          "address": "0xcac524bca292aaade2df8a05cc58f0a65b1b3bb9",
          "topics": [
            "0x8c5be1e5ebec7d5bd14f71427d1e84f3dd0314c0f7b2291e5b200ac8c7c3b925",
            "0x000000000000000000000000881041a0f75276dd79f53f9988bf850c686f33a7",
            "0x000000000000000000000000ee567fe1712faf6149d80da1e6934e354124cfe3"
          ],
          "data": "0x00000000000000000000000000000000000000000000000000000000004c4b40",
          "blockHash": "0xa74d93af680439910d45c2fa6abcbad8aa6d2bd4ce98fe319f2a2df008806a9c",
          "blockNumber": "0x895792",
          "transactionHash": "0x133f548af85c102e85df8f1bab052ea140cf7e9eb624ed3dd508e2de6365b7c6",
          "transactionIndex": "0x52",
          "logIndex": "0xa9",
          "removed": false
        }
      ],
      "logsBloom": "0x00000000000000000000000000000000000000000000000000000000000000000000000000000000000000000000800000000000000000000000000008200000000000000000000000000000000000000000000000000000000000000000000000010000000000000000000000000000000000000000000000000000000000000000000000000000000000000000000000000000000000000000001000000000020000000000000000000000000040000000000000000000000000800000000000000000000000000000000000000000200000000000000000000000000000000010000000000000000000000000000000000000000200000080000000000000",
      "type": "0x2",
      "transactionHash": "0x133f548af85c102e85df8f1bab052ea140cf7e9eb624ed3dd508e2de6365b7c6",
      "transactionIndex": "0x52",
      "blockHash": "0xa74d93af680439910d45c2fa6abcbad8aa6d2bd4ce98fe319f2a2df008806a9c",
      "blockNumber": "0x895792",
      "gasUsed": "0xeaf0",
      "effectiveGasPrice": "0x2bed16",
      "from": "0x881041a0f75276dd79f53f9988bf850c686f33a7",
      "to": "0xcac524bca292aaade2df8a05cc58f0a65b1b3bb9",
      "contractAddress": null
    },
    {
      "status": "0x1",
      "cumulativeGasUsed": "0x2b4cd1e",
      "logs": [
        {
          "address": "0xcac524bca292aaade2df8a05cc58f0a65b1b3bb9",
          "topics": [
            "0xddf252ad1be2c89b69c2b068fc378daa952ba7f163c4a11628f55a4df523b3ef",
            "0x000000000000000000000000881041a0f75276dd79f53f9988bf850c686f33a7",
            "0x000000000000000000000000cba5de93f459b9525f78d9129f8eb95cb7ac96e1"
          ],
          "data": "0x00000000000000000000000000000000000000000000000000000000004c4b40",
          "blockHash": "0x3bc86e57636070d7b23bf4b5624ab9bf8f6e46292d31423a479c3d8a72bf4594",
          "blockNumber": "0x895793",
          "transactionHash": "0x20657636f677aa46658439ee83240bf3c5f77e229bd928b6ab86dec0d9efcd9a",
          "transactionIndex": "0x4c",
          "logIndex": "0x23ad",
          "removed": false
        },
        {
          "address": "0x3bfb466e93d726d7e4f1366ed6cfd01a51ced75f",
          "topics": [
            "0xddf252ad1be2c89b69c2b068fc378daa952ba7f163c4a11628f55a4df523b3ef",
            "0x000000000000000000000000cba5de93f459b9525f78d9129f8eb95cb7ac96e1",
            "0x000000000000000000000000881041a0f75276dd79f53f9988bf850c686f33a7"
          ],
          "data": "0x0000000000000000000000000000000000000000000000000000000000487409",
          "blockHash": "0x3bc86e57636070d7b23bf4b5624ab9bf8f6e46292d31423a479c3d8a72bf4594",
          "blockNumber": "0x895793",
          "transactionHash": "0x20657636f677aa46658439ee83240bf3c5f77e229bd928b6ab86dec0d9efcd9a",
          "transactionIndex": "0x4c",
          "logIndex": "0x23ae",
          "removed": false
        },
        {
          "address": "0xcba5de93f459b9525f78d9129f8eb95cb7ac96e1",
          "topics": [
            "0x1c411e9a96e071241c2f21f7726b17ae89e3cab4c78be50e062b03a9fffbbad1"
          ],
          "data": "0x0000000000000000000000000000000000000000000000000000000005ad6cf70000000000000000000000000000000000000000000000000000000006422c40",
          "blockHash": "0x3bc86e57636070d7b23bf4b5624ab9bf8f6e46292d31423a479c3d8a72bf4594",
          "blockNumber": "0x895793",
          "transactionHash": "0x20657636f677aa46658439ee83240bf3c5f77e229bd928b6ab86dec0d9efcd9a",
          "transactionIndex": "0x4c",
          "logIndex": "0x23af",
          "removed": false
        },
        {
          "address": "0xcba5de93f459b9525f78d9129f8eb95cb7ac96e1",
          "topics": [
            "0xd78ad95fa46c994b6551d0da85fc275fe613ce37657fb8d5e3d130840159d822",
            "0x000000000000000000000000ee567fe1712faf6149d80da1e6934e354124cfe3",
            "0x000000000000000000000000881041a0f75276dd79f53f9988bf850c686f33a7"
          ],
          "data": "0x000000000000000000000000000000000000000000000000000000000000000000000000000000000000000000000000000000000000000000000000004c4b4000000000000000000000000000000000000000000000000000000000004874090000000000000000000000000000000000000000000000000000000000000000",
          "blockHash": "0x3bc86e57636070d7b23bf4b5624ab9bf8f6e46292d31423a479c3d8a72bf4594",
          "blockNumber": "0x895793",
          "transactionHash": "0x20657636f677aa46658439ee83240bf3c5f77e229bd928b6ab86dec0d9efcd9a",
          "transactionIndex": "0x4c",
          "logIndex": "0x23b0",
          "removed": false
        }
      ],
      "logsBloom": "0x00200000000000000000000080000000000000000000000000000000000000000000000000000000000000000000800000000000000000000000000008000000000000000000000000000008000008200000000000000000000000000000000000010040200000000000000000000000000000000000000000000010000000000000000080000000000000000000000004000000000000080800005000000100000000000000002000000000000040000000000000000000020000800000000000000002000000000000000000000000200000000000001000000000000000000000000000000000000000000000000000000000000200000080000000000000",
      "type": "0x2",
      "transactionHash": "0x20657636f677aa46658439ee83240bf3c5f77e229bd928b6ab86dec0d9efcd9a",
      "transactionIndex": "0x4c",
      "blockHash": "0x3bc86e57636070d7b23bf4b5624ab9bf8f6e46292d31423a479c3d8a72bf4594",
      "blockNumber": "0x895793",
      "gasUsed": "0x27548",
      "effectiveGasPrice": "0x2e4e9d",
      "from": "0x881041a0f75276dd79f53f9988bf850c686f33a7",
      "to": "0xee567fe1712faf6149d80da1e6934e354124cfe3",
      "contractAddress": null
    }
  ],
  "libraries": [],
  "pending": [],
  "returns": {},
  "timestamp": 1755396877445,
  "chain": 11155111,
  "commit": "19a8039"
}